:020000040800F2
:100000000005002045010008E7110008C71000089E
:10001000E5110008530200089514000800000000D4
:10002000000000000000000000000000E9120008CD
:100030005502000800000000E9110008EB1200085A
:100040005F0100085F0100085F0100085F01000810
:100050005F0100085F0100085F0100085F01000800
:100060005F0100085F0100085F0100085F010008F0
:100070005F0100085F0100085F0100085F010008E0
:100080005F0100085F0100085F0100085F010008D0
:100090005F0100085F0100085F0100085F010008C0
:1000A0005F0100085F0100085F0100085F010008B0
:1000B0005F0100085F0100085F0100085F010008A0
:1000C0005F0100085F0100085F0100085F01000890
:1000D0005F0100085F0100085F0100085F01000880
:1000E0005F0100085F0100085F0100085F01000870
:1000F0005F0100085F0100085F0100085F01000860
:100100005F0100085F0100085F0100085F0100084F
:100110005F0100085F0100085F0100085F0100083F
:100120005F0100085F0100085F0100085F0100082F
:10013000DFF80CD000F06CF800480047D117000839
:10014000000500200648804706480047FEE7FEE716
:10015000FEE7FEE7FEE7FEE7FEE7FEE7FEE7FEE777
:100160003113000831010008202A04DB203A21FA6B
:1001700002F00021704721FA02F3D040C2F12002C0
:100180009140084319467047D2B201E000F8012BB4
:10019000491EFBD270470022F6E710B513460A4607
:1001A00004461946FFF7F0FF204610BD2DE9F05F29
:1001B0000546002092469B468846064681464024D6
:1001C0001BE02846414647462246FFF7CDFF5346EF
:1001D0005A46C01A914110D311461846224600F0E3
:1001E00029F82D1A67EB01084F462246012000210D
:1001F00000F020F817EB00094E41201EA4F1010485
:10020000DFDC484631462A464346BDE8F09F000001
:10021000064C074D06E0E06840F0010394E8070053
:1002200098471034AC42F6D3FFF786FF4818000811
:1002300068180008202A04DB203A00FA02F10020A6
:1002400070479140C2F1200320FA03F31943904014
:100250007047FEE7704770472DE9F84FDFF8C89107
:10026000002409F1040A0AF1040B23460F270BF1BD
:10027000040ED1E00125A54006EA0502AA4276D186
:10028000DFF8A8C14E68A6EB0C0866452BD00DDC44
:10029000032E34D005DC36B3012E19D0022E2FD117
:1002A0001BE0112E16D0122E2AD119E0B8F5881FA6
:1002B00019D006DCB8F5803F15D0B8F5801F1FD1E6
:1002C00011E0B8F5001F0ED0B8F5041F18D10AE0F0
:1002D000CB6815E0CB681B1D12E0CB6808330FE03C
:1002E000CB680C330CE08B682BB1012B4FF008036B
:1002F00003D0456104E0042302E0056100E000232F
:10030000FF2A01D8064601E000F104064FEA840501
:1003100001D9A5F12005D6F8008007FA05FC28EAE6
:100320000C0803FA05F548EA0508C6F800804D6890
:10033000ED0070D53E4DAE6946F00106AE61AD6987
:1003400024F0030605F0010500953A4D06EB050C77
:10035000DCF80850A607360F07FA06F825EA080564
:10036000DFF8D480404503D14FF0000825E052E08B
:10037000DFF8C880404502D14FF001081DE0DFF8EA
:10038000C080404502D14FF0020816E0DFF8B4808B
:10039000404502D14FF003080FE0DFF8AC80404544
:1003A00002D14FF0040808E0DFF8A080404502D1F8
:1003B0004FF0050801E04FF0060808FA06F848EA91
:1003C0000508CCF808804D68D9F80060ED034D466B
:1003D00001D5164300E096432E604D68DAF80060C0
:1003E000AD03554601D5164300E096432E604D6897
:1003F000DBF80060ED025D4601D5164300E0964350
:100400002E604D68DEF80060AD02754601D51643DA
:1004100000E096432E60641C0A681646E2407FF4B2
:1004200029AFBDE8F88F0000000401400000111062
:10043000001002400000014000080140000C014093
:10044000001001400014014000180140001C014050
:100450000AB1016170470904FBE7000001488068A8
:10046000704700000000002070B504001BD094F815
:100470003D00002520B984F83C50204600F0AEF83D
:10048000242084F83D002068016821F0010101600A
:1004900000F0F2F94D4A6168914201D84C4900E000
:1004A0004C49884201D2012070BD4B492368B0FB02
:1004B000F1F15E6826F03F060E435E60636893428A
:1004C00006D94FF4967359434FF47A73B1FBF3F1A5
:1004D0002368491C1E6A26F03F0631431962616891
:1004E000914210D84900401EB0FBF1F2521CC2F3F9
:1004F0000B02042A01D2042022E0B0FBF1F0401CE0
:10050000C0F30B001CE0A368F3B301EBC10202EBE4
:100510000116421EB2FBF6F2521C42F48042120552
:1005200049D093B301EBC10202EB0111401EB0FBB5
:10053000F1F0401CC0F30B0040F4804040F4004058
:100540002168CA694CF6FF739A431043C861D4E925
:100550000701084321680A6822F0C00210430860BE
:10056000D4E9030101432068826848F2FF339A43CB
:1005700011438160D4E9050108432168CA6822F06B
:10058000FF021043C86001E00EE016E02068016839
:1005900041F0010101602564202084F83D002563BD
:1005A00084F83E50002070BD01EB4106421EB2FBB4
:1005B000F6F2521CB3E70120C2E701EB4101401EF5
:1005C000B0FBF1F0401CC0F30B00B7E7A0860100C0
:1005D00080841E0000093D0040420F0010B586B027
:1005E0000021009101910291039100680F49884216
:1005F0001AD10F4CA06940F00800A061A0696946BB
:1006000000F008000490C020009012200190032008
:1006100003900848FFF720FEE06940F40010E06115
:10062000E06900F40010049006B010BD00540040D2
:1006300000100240000C0140024881680278114419
:100640008160704700000020074810B5016841F044
:1006500010010160032000F067F8002000F006F8A8
:1006600000F024F8002010BD0020024070B50D4DB0
:1006700004464FF47A712878B1FBF0F00A49096812
:10068000B1FBF0F000F045FC48B9102C07D2002275
:100690002146501E00F028F800206C6070BD01203B
:1006A00070BD0000000000200C0000200C4808B5C0
:1006B000816941F001018161816901F001010091CD
:1006C000C16941F08051C161C06900F08050009063
:1006D0000448416821F0E06141F00071416008BDCB
:1006E0000010024000000140F0B40E4B1B680C46A5
:1006F000C3F30223C3F10705042D00D90425191DF6
:10070000072901D2002300E0DB1E012606FA05F1CD
:10071000491E214099409E40761E16403143F0BC50
:1007200000F0CABE0CED00E0064900F007020868C0
:100730004FF6FF03184040EA0220034A10430860C6
:10074000704700000CED00E00000FA052DE9F047CD
:100750000F46050061D0434E306800F00700B842F4
:1007600009D2306820F0070038433060306800F06C
:100770000700B84251D128683B4C810712D5400789
:1007800003D5606840F4E06060602878000703D516
:10079000606840F4605060606068A96820F0F00014
:1007A000084360602878C00728D06868012810D006
:1007B0002168022810D0890700292EDA616821F00B
:1007C000030101436160FFF749FE804641F2883929
:1007D0000DE021688903EFE78901EDE7FFF73EFEB1
:1007E000A0EB0801494502D90320BDE8F087606805
:1007F000696800F00C00B0EB810FEFD1306800F0B9
:100800000700B8420BD9306820F007003843306049
:10081000306800F00700B84201D00120E5E72878F1
:10082000400705D56068E96820F4E060084360602F
:100830002878000706D56068296920F4605040EAEE
:10084000C100606000F038F86168084AC1F3031124
:10085000515CC8400649086006480068FFF706FF7B
:100860000020C2E7002002400010024030180008BB
:100870000C00002004000020044805490068496875
:10088000044AC1F30221515CC84070470C000020AB
:1008900000100240401800080448054900684968F3
:1008A000044AC1F3C221515CC84070470C000020CB
:1008B000001002404018000812A185B00FC98DE851
:1008C0000F0014A0144A006804905168134801F006
:1008D0000C03042B10D0082B0ED1C1F38343C903A2
:1008E0001DF803000AD5516804AAC1F34041515CC8
:1008F0000A4A5043B0FBF1F005B07047084948433D
:10090000FAE7000002030405060708090A0B0C0DAC
:100910000E0F1010010200000010024000127A00B9
:1009200000093D002DE9F84F040070D02078C04D3B
:10093000C00749D06868C0F38100012807D0686803
:10094000C0F38100022809D16868C00306D5286871
:10095000800339D560680028E7D035E06068B0F5DD
:10096000803F0BD010B1B0F5A02F11D0286820F433
:1009700080302860286820F4802002E0286840F455
:1009800080302860606890B1FFF768FD06460AE095
:10099000286840F480202860F0E700BFFFF75EFD84
:1009A000801B642873D828688003F7D50CE0FFF714
:1009B00055FD064605E000BFFFF750FD801B64288B
:1009C000F0D828688003F7D420789A4E80074FF03B
:1009D00001094FF0000839D5686810F00C0F07D0F6
:1009E0006868C0F38100022809D16868C00306D492
:1009F0002868800714D52069012808D110E02069F3
:100A0000B0B1C6F80090FFF729FD074605E00AE1FE
:100A1000FFF724FDC01B0228C4D828688007F7D53B
:100A20002868616920F0F80040EAC10028600DE004
:100A3000C6F80080FFF712FD074604E0FFF70EFD41
:100A4000C01B022823D828688007F7D42078000725
:100A50002CD57948A169D9B1C0F80090FFF7FEFC08
:100A6000074604E0FFF7FAFCC01B02280FD8686AAB
:100A70008007F7D571484FF4FA510068B0FBF1F0E8
:100A8000009000BF0098411E0091FAD20EE080E075
:100A9000C0F80080FFF7E2FC074604E0FFF7DEFC49
:100AA000C01B022875D8686A8007F7D420784007F1
:100AB00060D5E8690027C00008D4E86940F080509C
:100AC000E861E869012700F0805000905C48016807
:100AD000C90513D40168834641F480710160FFF7B2
:100AE000BDFC824606E000BFFFF7B8FCA0EB0A00A1
:100AF00064284ED8DBF80000C005F5D5E068012871
:100B00000AD008B1052813D0286A20F00100286215
:100B1000286A20F0040002E0286A40F00100286200
:100B2000E06841F2883B98B1FFF798FC82460BE001
:100B3000286A40F004002862EEE700BFFFF78EFC51
:100B4000A0EB0A0159455AD8286A8007F6D50CE06F
:100B5000FFF784FC824605E0FFF780FCA0EB0A016A
:100B600059454CD8286A8007F6D41FB1E86920F0AF
:100B70008050E861E06988B36968C1F381010229A6
:100B800044D00228C6F8608004D0FFF767FC044612
:100B900038E034E0FFF762FC074604E0FFF75EFC54
:100BA000C01B02282BD828688001F7D4206AB0F532
:100BB000803F05D16868A16820F400300843686070
:100BC000D4E908010843696821F474110843686096
:100BD000C6F86090FFF742FC044606E025E000BF3F
:100BE000FFF73CFC001B022809D828688001F7D5D4
:100BF0001BE000BFFFF732FC001B022802D90320D4
:100C0000BDE8F88F28688001F4D40EE00128F7D001
:100C10006868226A00F48031914204D1616A00F46C
:100C20007010884201D00120EAE70020E8E70000C8
:100C30000010024000004242800442420C000020AA
:100C40000070004070B5040005D00025A56294F83E
:100C5000510010B106E0012070BD84F850502046CC
:100C600000F02EF8022084F851002068016821F07D
:100C700040010160D4E901010843D4E903121143A2
:100C8000084361690843218B01F400710843E1695D
:100C90000843216A0843A16A084321680860A069E3
:100CA000042101EA1040216848602068C16921F4EC
:100CB0000061C1616565012084F85100002070BDAC
:100CC00030B585B000240094019402940394006828
:100CD0001449884223D11448816941F480518161CB
:100CE000816901F480510491816941F004018161BD
:100CF00080690E4D00F004000490A02000900220B6
:100D000001900320039069462846FFF7A5FA40208A
:100D1000CDE90004694628460294FFF79DFA05B024
:100D200030BD0000003001400010024000080140CA
:100D30002DE9F84F044690F8500000270A9E1D4602
:100D400092468B464FF0010901280ED0012084F80D
:100D50005000FFF783FB804694F85100616801283A
:100D60000CD0B1F5827F07D102E00220BDE8F88FF8
:100D7000A16809B9042801D00227C2E0BBF1000F25
:100D800027D0BAF1000F24D01DB394F851000428E5
:100D900002D0052084F8510000206065C4F838A016
:100DA000E587A587C4F830B0E586A5862064606431
:100DB00020680168490603D4016841F040010160E0
:100DC000E068B0F5006F606805D0E8B3012D46D04B
:100DD0007FE0012795E008B1012D39D1206B216812
:100DE0000088C860206B801C2063E08E401EE08677
:100DF0002EE02068816889070FD5E18E69B1B9F1CD
:100E0000010F0AD1216B0988C160206B801C20630F
:100E1000E08E401EE0864FF0000920688168C90717
:100E20000CD0E18F51B1C068A16B0880A06B801C11
:100E3000A063E08F401EE0874FF00109FFF70EFB33
:100E4000A0EB0800B04200E009E001D3701C50D1D3
:100E5000E08E0028CDD1E08F0028CAD13FE0206B82
:100E6000216800780873206B401C2063E08E401ED0
:100E7000E0862EE02068816889070FD5E18E69B190
:100E8000B9F1010F0AD1216B09780173206B401C65
:100E90002063E08E401EE0864FF0000920688168E4
:100EA000C9070CD0E18F51B1C068A16B0870A06B6D
:100EB000401CA063E08F401EE0874FF00109FFF760
:100EC000CDFAA0EB0800B04202D3701C01D010E0B4
:100ED0007EB1E08E0028CDD1E08F0028CAD14246F5
:100EE0003146204600F081F928B1012720206065B5
:100EF00007E0032705E0A06818B92068C16880688A
:100F00000090012084F85100002084F850003846F9
:100F10002CE710B5401EB0F1807F01D3012010BD39
:100F20004FF0E02460610F21601700F0C5FA002047
:100F3000A06107202061002010BD70B5040004D01E
:100F400094F83900002510B106E0012070BD84F846
:100F50003850204600F022F8242084F83900206818
:100F6000C16821F40051C160204600F005FA2068F4
:100F7000016921F4904101612068416921F02A0151
:100F800041612068C16841F40051C160E5632020DF
:100F900084F8390084F83A00002070BD30B585B07F
:100FA0000024009401940294039400681449884238
:100FB00024D11448816941F480418161816901F43F
:100FC00080410491816941F00401816180690E4D85
:100FD00000F0040004904FF4007000900220019093
:100FE0000320039069462846FFF736F92815CDE916
:100FF0000004694628460294FFF72EF905B030BD7B
:101000000038014000100240000801402DE9F8437B
:10101000044690F839001F4616460D46202850D148
:10102000A5B19EB194F8380001284AD0012084F877
:1010300038004FF00008C4F83C80212084F83900C3
:10104000FFF70CFAA6848146E68426E00120BDE87D
:10105000F883E08C401EE084A0684B46B0F5805FCA
:101060004FF000024FF080012046009703D000F0BF
:10107000DFF9E8B90DE000F0DBF9C8B9288821688C
:10108000C0F308004860206908B16D1C05E0AD1C84
:1010900003E0216815F8010B4860E08C0028D8D1E6
:1010A0004B46002240212046009700F0C1F908B1CC
:1010B0000320CCE7202084F8390084F83880002011
:1010C000C5E70220C3E7FEE730B585B0002413482A
:1010D0000094019402940394816941F004018161B8
:1010E000816901F004010491816941F00801816185
:1010F00080690B4D00F00800049000220121284671
:10110000FFF7A6F90220012103900091CDE9011417
:1011100069462846FFF7A0F805B030BD0010024030
:10112000000C01400D4810B50B4901600C494160AD
:1011300000214FF480428160C0E903124161816166
:10114000C1610162FFF790F9002803D0BDE81040AB
:10115000FFF781B810BD00000054004014000020CB
:10116000A0860100104810B50E4901604FF482714D
:101170004160002102228160C0E903120122426124
:10118000520282610822C0E90721416281620A217C
:10119000C162FFF757FD002803D0BDE81040FFF7FC
:1011A0005AB810BD00300140680000200C4810B54E
:1011B0000A4901604FF4E1314160002181600C2255
:1011C000C160C0E904128161C161FFF7B6FE002869
:1011D00003D0BDE81040FFF73EB810BD0038014015
:1011E000C0000020FEE77047704738B50B460092FC
:1011F00004460022802100F02DF8002804D0606D04
:1012000040F020006065032038BD00001FB50020BD
:101210000AA10190D1E90001CDE90201FF2000906F
:10122000092301AA02A90748FFF782FD10B106A011
:1012300000F032F9019804B010BD0000ABFFFFFFD1
:10124000FF00000068000020CAB5D1E9CAA7B0DCE1
:101250000A0000002DE9F0411D4617460E460446DF
:10126000DDF8188008E0681C06D0FFF7F7F8A0EB5F
:101270000800A8420BD255B12068806836EA000009
:1012800030D00020B842EED10020BDE8F0812068C7
:10129000416821F0E00141606068B0F5827F0BD1C8
:1012A000A068B0F5004F02D0B0F5806F04D120687F
:1012B000016821F040010160A06AB0F5005F09D12A
:1012C0002068016821F4005101602068016841F440
:1012D00000510160012084F85100002084F8500082
:1012E0000320D2E70120CDE77047FFF7A5B910B57D
:1012F00090B028216846FEF74EFF14210AA8FEF799
:101300004AFF022000900120049010200024059044
:1013100007946846FFF706FB0F20CDE90A040C94FA
:101320000D9400210AA80E94FFF710FA10B010BD1A
:101330000D48016841F00101016041680B4A11400C
:10134000416001680A4A11400160016821F480216E
:101350000160416821F4FE0141604FF41F0181608A
:101360000449C00308607047001002400000FFF805
:10137000FFFFF6FE08ED00E02DE9F04104460068AD
:101380000169E26821F44051114301612169A068BB
:101390000843616908432168CA6841F20C639A43B3
:1013A0000243CA6020684169A26921F44071114377
:1013B00041611E49206864253226884202D1FFF728
:1013C0006BFA01E0FFF758FA00EBC00101EB0011E6
:1013D00060686FF018078000B1FBF0F2B2FBF5F225
:1013E000B1FBF0F37A4303EB8202B1FBF0F306EBBF
:1013F0000212B2FBF5F2B3FBF5F302F0F00202EBDE
:101400000312B1FBF0F3B1FBF0F0B0FBF5F0784361
:1014100003EB800006EB0010B0FBF5F0216800F054
:101420000F0010448860BDE8F081000000380140E2
:101430002DE9F041984617460E460446069D1DE0EC
:10144000681C1BD02DB1FFF709F8A0EB0800A842DB
:1014500014D92068C16821F4D071C1602068416945
:1014600021F001014161202084F8390084F83A001C
:10147000002084F838000320BDE8F081206800686F
:1014800036EA000004D00020B842D9D00020F3E7AB
:101490000120F9E7FEE700000FB4054B10B503A9E2
:1014A000044A029800F028F810BC5DF814FB000014
:1014B000B9170008100000200907090E002804DBF6
:1014C00000F1E02080F80014704700F00F0000F1F8
:1014D000E02080F8141D704702E008C8121F08C100
:1014E000002AFAD170477047002001E001C1121FA5
:1014F000002AFBD1704700002DE9FF4F8DB09B46BD
:101500000F460446002606E025280BD05A460F99C0
:101510009047641C761C20780028F5D111B0304625
:10152000BDE8F08F0025A8460122984900E0054358
:1015300014F8013F203B02FA03F00842F7D120786B
:101540002E2817D114F8010F45F004052A280ED0D3
:101550006FF02F022078A0F1300109290AD808EB9A
:10156000880102EB410100EB0108641CF2E757F827
:10157000048B641C20786C280DD004DC4C2812D01D
:101580006A2811D104E074280DD07A280CD10AE021
:1015900045F4001507E0617845F48015814202D1D9
:1015A000641C05F58015641C2278692A45D008DC86
:1015B000002AB3D0582A69D0632A10D0642A08D1EF
:1015C0003BE0702A67D0732A13D0752A5CD0782A42
:1015D0005CD010465A460F999047761CD3E017F816
:1015E000040B8DF8000000208DF80100E946012071
:1015F00003E057F8049B4FF0FF3069074FF00005F8
:1016000001D40AE06D1C45450DDA8542FADB19F874
:1016100005100029F6D106E06D1C8542FCDB19F8A7
:1016200005100029F8D12E4404E019F8010B5A46A0
:101630000F9990476D1EF8D2A5E00A200021CDE950
:101640000801C5F3025002280DD001CFC117031EB7
:1016500071F100030DDA4FF0000CD0EB0C006CEBD5
:1016600001012D2308E0FF1D27F00707F7E802011D
:10167000EDE72B0504D52B238DF8283001233BE023
:10168000EB0739D02023F7E70A2000E010200021E3
:10169000CDE9080107E01020002145F00405CDE95F
:1016A00008014FF00808C5F3025002280FD001CFFF
:1016B00000214FF0000A2B071FD5702A0DD0DDE95D
:1016C00008C38CF0100C5CEA030C0CD015E0FF1D75
:1016D00027F00707F7E80201EBE740228DF8282002
:1016E0004FF0010A0BE050EA010306D030238DF8D9
:1016F00028308DF8292002239A46582A04D024A2A3
:101700000DF120090B9209E026A2F9E7DDE9082393
:10171000FEF74CFD0B9B9B5C09F8013D50EA010272
:10172000F4D1ADEB090020300890680701D44FF0E8
:1017300001080899884502DDA8EB010000E00020BF
:101740008046002506E00AA85A46405D0F9990475A
:101750006D1C761C5545F6DB04E030205A460F9987
:101760009047761CB8F10001A8F10108F5DC05E00E
:1017700019F8010B5A460F999047761C0899481E94
:1017800008900029F4DC641CC5E60000092801006B
:1017900030313233343536373839616263646566E7
:1017A00000000000303132333435363738394142A9
:1017B000434445460000000013B54FF6FF73012275
:1017C00069460248FFF722FC00981CBDC0000020BB
:1017D000FEF73AFFFFF78BFDFFF776FCFFF7A2FC61
:1017E000FFF7E4FCFFF7BEFC04A0FFF755FEFFF790
:1017F0000DFD014605A0FFF74FFEFEE7206B6520BB
:101800007A61207A68656E670A0000000D0A204D33
:10181000616E756661637475726572204465766980
:10182000636520494420697320307825580D0A00EB
:101830000000000000000000010203040607080980
:1018400000000000010203046818000800000020E6
:1018500014000000D81400087C18000814000020B0
:10186000EC040000E8140008010000001000000073
:0C187000000000000024F4000000000054
:0400000508000131BD
:00000001FF
